{
 "_format": "hh-sol-artifact-1",
 "contractName": "UsdcDemo",
 "sourceName": "contracts/Usdc.sol",
 "abi": [
  {
   "inputs": [
    {
     "internalType": "address",
     "name": "usdcContractAddress",
     "type": "address"
    }
   ],
   "stateMutability": "nonpayable",
   "type": "constructor"
  },
  {
   "inputs": [
    {
     "internalType": "uint256",
     "name": "$USDC",
     "type": "uint256"
    }
   ],
   "name": "Fund",
   "outputs": [],
   "stateMutability": "payable",
   "type": "function"
  },
  {
   "inputs": [],
   "name": "Usdc",
   "outputs": [
    {
     "internalType": "contract USDC",
     "name": "",
     "type": "address"
    }
   ],
   "stateMutability": "view",
   "type": "function"
  },
  {
   "inputs": [],
   "name": "owner",
   "outputs": [
    {
     "internalType": "address payable",
     "name": "",
     "type": "address"
    }
   ],
   "stateMutability": "view",
   "type": "function"
  }
 ],
 "bytecode": "0x608060405234801561001057600080fd5b506040516106ff3803806106ff8339818101604052810190610032919061011c565b806000806101000a81548173ffffffffffffffffffffffffffffffffffffffff021916908373ffffffffffffffffffffffffffffffffffffffff16021790555033600160006101000a81548173ffffffffffffffffffffffffffffffffffffffff021916908373ffffffffffffffffffffffffffffffffffffffff16021790555050610149565b600080fd5b600073ffffffffffffffffffffffffffffffffffffffff82169050919050565b60006100e9826100be565b9050919050565b6100f9816100de565b811461010457600080fd5b50565b600081519050610116816100f0565b92915050565b600060208284031215610132576101316100b9565b5b600061014084828501610107565b91505092915050565b6105a7806101586000396000f3fe6080604052600436106100345760003560e01c806327b2dc14146100395780638da5cb5b14610055578063ccb373de14610080575b600080fd5b610053600480360381019061004e91906102cf565b6100ab565b005b34801561006157600080fd5b5061006a61024a565b604051610077919061033d565b60405180910390f35b34801561008c57600080fd5b50610095610270565b6040516100a291906103b7565b60405180910390f35b60008054906101000a900473ffffffffffffffffffffffffffffffffffffffff1673ffffffffffffffffffffffffffffffffffffffff166323b872dd3330620f4240856100f89190610401565b6040518463ffffffff1660e01b81526004016101169392919061048b565b602060405180830381600087803b15801561013057600080fd5b505af1158015610144573d6000803e3d6000fd5b505050506040513d601f19601f8201168201806040525081019061016891906104fa565b5060008054906101000a900473ffffffffffffffffffffffffffffffffffffffff1673ffffffffffffffffffffffffffffffffffffffff1663a9059cbb600160009054906101000a900473ffffffffffffffffffffffffffffffffffffffff16620f4240846101d79190610401565b6040518363ffffffff1660e01b81526004016101f4929190610548565b602060405180830381600087803b15801561020e57600080fd5b505af1158015610222573d6000803e3d6000fd5b505050506040513d601f19601f8201168201806040525081019061024691906104fa565b5050565b600160009054906101000a900473ffffffffffffffffffffffffffffffffffffffff1681565b60008054906101000a900473ffffffffffffffffffffffffffffffffffffffff1681565b600080fd5b6000819050919050565b6102ac81610299565b81146102b757600080fd5b50565b6000813590506102c9816102a3565b92915050565b6000602082840312156102e5576102e4610294565b5b60006102f3848285016102ba565b91505092915050565b600073ffffffffffffffffffffffffffffffffffffffff82169050919050565b6000610327826102fc565b9050919050565b6103378161031c565b82525050565b6000602082019050610352600083018461032e565b92915050565b6000819050919050565b600061037d610378610373846102fc565b610358565b6102fc565b9050919050565b600061038f82610362565b9050919050565b60006103a182610384565b9050919050565b6103b181610396565b82525050565b60006020820190506103cc60008301846103a8565b92915050565b7f4e487b7100000000000000000000000000000000000000000000000000000000600052601160045260246000fd5b600061040c82610299565b915061041783610299565b9250817fffffffffffffffffffffffffffffffffffffffffffffffffffffffffffffffff04831182151516156104505761044f6103d2565b5b828202905092915050565b6000610466826102fc565b9050919050565b6104768161045b565b82525050565b61048581610299565b82525050565b60006060820190506104a0600083018661046d565b6104ad602083018561046d565b6104ba604083018461047c565b949350505050565b60008115159050919050565b6104d7816104c2565b81146104e257600080fd5b50565b6000815190506104f4816104ce565b92915050565b6000602082840312156105105761050f610294565b5b600061051e848285016104e5565b91505092915050565b600061053282610384565b9050919050565b61054281610527565b82525050565b600060408201905061055d6000830185610539565b61056a602083018461047c565b939250505056fea2646970667358221220a046e2491fef263154cff0668bfa9e14de349b055053a873b371d75c4a0e4eda64736f6c63430008090033",
 "linkReferences": {},
 "deployedLinkReferences": {}
}